:020000040000FA
:1008000002EF04F0EEEF3DF056616C6F7220414450
:100810003A20006465736C69676F75000000FF0023
:107BA000FF00FF00C2821200C230010B1200C4505D
:107BB000026EC350016E1200ACAC03D0AC902CB27C
:107BC000AC8001C0ADFF1200C2CF02F0C30E02169E
:107BD000D89001303C0B0210C26E12002C6A2B6A46
:107BE0002A6A000EF86E080EF76E000166EF3FF08D
:107BF000F20E2C16ABAC03D02C90ABB02C80ABB4F7
:107C00002C84ABB22C86AECF01F001501200ACA296
:107C1000FED702C0D9FF03C0DAFFDF50016EDCECF3
:107C20003DF002C0D9FF03C0DAFF024A032ADF5049
:107C3000D8B41200ECD7000E2B6E000E2A6E2B501B
:107C4000800A800F640ED8B42A5CD8B00AD09C0E8B
:107C5000016ED70EE82EFED7012EFCD72A4A2B2A1A
:107C6000EED71200ACA2FED702C0F6FF03C0F7FFAA
:107C70000800F5CF01F0DCEC3DF002C0F6FF03C0D8
:107C8000F7FF024A032A0800F5500009D8B4120091
:107C9000E9D712C018F013C019F015AE0CD012C0FD
:107CA000D9FF13C0DAFF2D0EDF6E124A132A146CAF
:107CB000151ED8B0152A12C009F013C00AF014C05E
:107CC0000BF015C00CF016C00DF017C00EF014EC40
:107CD0003FF0120004500310D8B41AD0056E010E04
:107CE000066E055004D0D89003360436062A04AE3A
:107CF000FAD70350015C04500258D8A004D00350B6
:107D0000015E0450025AD89004320332062EF1D795
:107D100001C001F002C002F01200000E076E000E5A
:107D2000066E04500310D8B41ED0056E010E086E06
:107D3000055004D0D89003360436082A04AEFAD78A
:107D4000D890063607360350015C04500258D8A07C
:107D500005D00350015E0450025A0680D8900432C8
:107D60000332082EEDD706C001F007C002F0120062
:107D7000000EAC6E000EAB6E01B0AC8801A202D05A
:107D8000AC8CAB8C01B4AC8E01A602D0AB8801D018
:107D9000AB8A01B8AC849E9801BAAB8601AC02D024
:107DA0009D8A01D09D9A9E9A01AE02D09D8801D0F5
:107DB0009D9802C0AFFF0350B06EAC8AAB8E949C0E
:107DC000948EACB8ACBE01D0948C1200000EC26E82
:107DD000000EC06ED89002303C0BC26E02C004F0A0
:107DE000043AF00E0416300E041603500F0B041064
:107DF000C16E01C004F0D8900436D8900436380E15
:107E0000041601C005F0053A0F0E0516070E0516FB
:107E10000150800B05100410C06E02AE03D09E9C72
:107E20009D8CF28CC28012000BC00FF00CC010F0C1
:107E30000FC001F010C002F00DC003F00EC004F03E
:107E40008DEC3EF001C00FF002C010F0094A0A2A82
:107E500010500F10D8A4ECD709C0D9FF0AC0DAFF20
:107E6000000EDF6E0906D8A00A060BC001F00CC098
:107E700002F00DC003F00EC004F06AEC3EF00150B9
:107E8000116E0BC001F00CC002F00DC003F00EC06B
:107E900004F08DEC3EF001C00BF002C00CF0090EB6
:107EA000116402D0070E1126300E112609C0D9FF29
:107EB0000AC0DAFF11C0DFFF0906D8A00A060C507D
:107EC0000B10D8A4D2D7094A0A2A1200000E286E35
:107ED000000E276E939E1F6E2C0E016E1F50000E1B
:107EE000036E4D0E026EB8EC3EF0818E1BEC3EF040
:107EF000819E1BEC3EF0818E1BEC3EF0819E1BECC4
:107F00003EF09EAAFED7F8EC3DF0296E29506C0A8F
:107F1000D8A413D0080E036E160E026E32EC3EF09B
:107F20001F6E0D0E016E1F50DCEC3DF01F6E0A0E31
:107F3000016E1F50DCEC3DF0818E2950640AD8A4FC
:107F400013D0080E036E130E026E32EC3EF0819ECB
:107F50001F6E0D0E016E1F50DCEC3DF01F6E0A0E01
:107F6000016E1F50DCEC3DF02950610AD8A4C9D73E
:107F70001F6E910E016E1F50206E040E026E205077
:107F8000216EF50E036E2150E6EC3EF01F6E970E4B
:107F9000016E1F50E4EC3DF0D2EC3DF0D4EC3DF02E
:107FA0000009D8A4FBD7D7EC3DF001C027F002C0F0
:107FB00028F0000E136E220E126E27C014F028C097
:107FC00015F0000E176E0A0E166E49EC3EF0080E04
:107FD000036E080E026E32EC3EF0000E036E220EAF
:107FE000026E07EC3EF01F6E0D0E016E1F50DCECB2
:107FF0003DF01F6E0A0E016E1F50DCEC3DF081D784
:020000040020DA
:08000000FFFFFFFFFFFFFFFF00
:020000040030CA
:0E000000240E3E1EFF8081FF01C00FA00F40A6
:00000001FF
